{
  "contractName": "Precompiledtest",
  "abi": [
    {
      "inputs": [
        {
          "internalType": "string",
          "name": "myMessage",
          "type": "string"
        }
      ],
      "stateMutability": "nonpayable",
      "type": "constructor"
    },
    {
      "inputs": [],
      "name": "getMessage",
      "outputs": [
        {
          "internalType": "string",
          "name": "",
          "type": "string"
        }
      ],
      "stateMutability": "view",
      "type": "function",
      "constant": true
    }
  ],
  "bytecode": "0x608060405234801561001057600080fd5b5060405161055b38038061055b83398181016040528101906100329190610270565b806000908051906020019061004892919061004f565b505061031a565b82805461005b906102e8565b90600052602060002090601f01602090048101928261007d57600085556100c4565b82601f1061009657805160ff19168380011785556100c4565b828001600101855582156100c4579182015b828111156100c35782518255916020019190600101906100a8565b5b5090506100d191906100d5565b5090565b5b808211156100ee5760008160009055506001016100d6565b5090565b6000604051905090565b600080fd5b600080fd5b600080fd5b600080fd5b6000601f19601f8301169050919050565b7f4e487b7100000000000000000000000000000000000000000000000000000000600052604160045260246000fd5b61015982610110565b810181811067ffffffffffffffff8211171561017857610177610121565b5b80604052505050565b600061018b6100f2565b90506101978282610150565b919050565b600067ffffffffffffffff8211156101b7576101b6610121565b5b6101c082610110565b9050602081019050919050565b60005b838110156101eb5780820151818401526020810190506101d0565b838111156101fa576000848401525b50505050565b600061021361020e8461019c565b610181565b90508281526020810184848401111561022f5761022e61010b565b5b61023a8482856101cd565b509392505050565b600082601f83011261025757610256610106565b5b8151610267848260208601610200565b91505092915050565b600060208284031215610286576102856100fc565b5b600082015167ffffffffffffffff8111156102a4576102a3610101565b5b6102b084828501610242565b91505092915050565b7f4e487b7100000000000000000000000000000000000000000000000000000000600052602260045260246000fd5b6000600282049050600182168061030057607f821691505b60208210811415610314576103136102b9565b5b50919050565b610232806103296000396000f3fe608060405234801561001057600080fd5b506004361061002b5760003560e01c8063ce6d41de14610030575b600080fd5b61003861004e565b6040516100459190610179565b60405180910390f35b60606000805461005d906101ca565b80601f0160208091040260200160405190810160405280929190818152602001828054610089906101ca565b80156100d65780601f106100ab576101008083540402835291602001916100d6565b820191906000526020600020905b8154815290600101906020018083116100b957829003601f168201915b5050505050905090565b600081519050919050565b600082825260208201905092915050565b60005b8381101561011a5780820151818401526020810190506100ff565b83811115610129576000848401525b50505050565b6000601f19601f8301169050919050565b600061014b826100e0565b61015581856100eb565b93506101658185602086016100fc565b61016e8161012f565b840191505092915050565b600060208201905081810360008301526101938184610140565b905092915050565b7f4e487b7100000000000000000000000000000000000000000000000000000000600052602260045260246000fd5b600060028204905060018216806101e257607f821691505b602082108114156101f6576101f561019b565b5b5091905056fea26469706673582212203dad299065d69b4a75ff664ccd97b0206efb6a19ff0097cc4dba0c36e3ec95af64736f6c634300080b0033",
  "immutableReferences": {},
  "source": "// SPDX-License-Identifier: MIT\n\npragma solidity >=0.7.0 <=0.8.11;\n\ncontract Precompiledtest {\n    string message;\n\n    constructor(string memory myMessage){\n        message = myMessage;\n    }\n\n    function getMessage() public view returns(string memory) {\n        return message;\n    }\n\n}",
  "sourcePath": "/home/fisco/Ethcontract/precontracttest/contracts/Precompiledtest.sol",
  "compiler": {
    "name": "solc",
    "version": "0.8.11+commit.d7f03943.Emscripten.clang"
  },
  "schemaVersion": "3.4.4",
  "updatedAt": "2022-01-28T03:47:00.824Z",
  "networkType": "ethereum",
  "devdoc": {
    "kind": "dev",
    "methods": {},
    "version": 1
  },
  "userdoc": {
    "kind": "user",
    "methods": {},
    "version": 1
  }
}