{
  "contractName": "Precall",
  "abi": [
    {
      "inputs": [],
      "name": "checkResult",
      "outputs": [
        {
          "internalType": "uint256",
          "name": "",
          "type": "uint256"
        }
      ],
      "stateMutability": "view",
      "type": "function"
    },
    {
      "inputs": [],
      "name": "expectedHash",
      "outputs": [
        {
          "internalType": "bytes32",
          "name": "",
          "type": "bytes32"
        }
      ],
      "stateMutability": "view",
      "type": "function"
    },
    {
      "inputs": [],
      "name": "expectedHash2",
      "outputs": [
        {
          "internalType": "bytes20",
          "name": "",
          "type": "bytes20"
        }
      ],
      "stateMutability": "view",
      "type": "function"
    },
    {
      "inputs": [],
      "name": "memoryStored",
      "outputs": [
        {
          "internalType": "bytes",
          "name": "",
          "type": "bytes"
        }
      ],
      "stateMutability": "view",
      "type": "function"
    },
    {
      "inputs": [],
      "name": "ecrecovertest",
      "outputs": [
        {
          "internalType": "bool",
          "name": "",
          "type": "bool"
        }
      ],
      "stateMutability": "pure",
      "type": "function"
    },
    {
      "inputs": [],
      "name": "calculateHash",
      "outputs": [
        {
          "internalType": "bytes32",
          "name": "",
          "type": "bytes32"
        }
      ],
      "stateMutability": "pure",
      "type": "function"
    },
    {
      "inputs": [],
      "name": "checkHash",
      "outputs": [
        {
          "internalType": "bool",
          "name": "",
          "type": "bool"
        }
      ],
      "stateMutability": "view",
      "type": "function"
    },
    {
      "inputs": [],
      "name": "sha3fips",
      "outputs": [
        {
          "internalType": "bytes32",
          "name": "",
          "type": "bytes32"
        }
      ],
      "stateMutability": "view",
      "type": "function"
    },
    {
      "inputs": [],
      "name": "calculateHash160",
      "outputs": [
        {
          "internalType": "bytes20",
          "name": "",
          "type": "bytes20"
        }
      ],
      "stateMutability": "pure",
      "type": "function"
    },
    {
      "inputs": [],
      "name": "checkHash160",
      "outputs": [
        {
          "internalType": "bool",
          "name": "",
          "type": "bool"
        }
      ],
      "stateMutability": "view",
      "type": "function"
    },
    {
      "inputs": [],
      "name": "callBn256Add",
      "outputs": [
        {
          "internalType": "bytes32[2]",
          "name": "result",
          "type": "bytes32[2]"
        }
      ],
      "stateMutability": "nonpayable",
      "type": "function"
    },
    {
      "inputs": [],
      "name": "callBn256ScalarMul",
      "outputs": [
        {
          "internalType": "bytes32[2]",
          "name": "result",
          "type": "bytes32[2]"
        }
      ],
      "stateMutability": "nonpayable",
      "type": "function"
    },
    {
      "inputs": [],
      "name": "callBn256Pairing",
      "outputs": [
        {
          "internalType": "bytes32",
          "name": "result",
          "type": "bytes32"
        }
      ],
      "stateMutability": "nonpayable",
      "type": "function"
    },
    {
      "inputs": [],
      "name": "callDatacopy",
      "outputs": [
        {
          "internalType": "bytes",
          "name": "",
          "type": "bytes"
        }
      ],
      "stateMutability": "nonpayable",
      "type": "function"
    },
    {
      "inputs": [
        {
          "internalType": "uint256",
          "name": "_base",
          "type": "uint256"
        },
        {
          "internalType": "uint256",
          "name": "_exp",
          "type": "uint256"
        },
        {
          "internalType": "uint256",
          "name": "_modulus",
          "type": "uint256"
        }
      ],
      "name": "modVerify",
      "outputs": [],
      "stateMutability": "nonpayable",
      "type": "function"
    },
    {
      "inputs": [
        {
          "internalType": "uint256",
          "name": "_b",
          "type": "uint256"
        },
        {
          "internalType": "uint256",
          "name": "_e",
          "type": "uint256"
        },
        {
          "internalType": "uint256",
          "name": "_m",
          "type": "uint256"
        }
      ],
      "name": "modExp",
      "outputs": [
        {
          "internalType": "uint256",
          "name": "result",
          "type": "uint256"
        }
      ],
      "stateMutability": "nonpayable",
      "type": "function"
    },
    {
      "inputs": [
        {
          "internalType": "uint32",
          "name": "rounds",
          "type": "uint32"
        },
        {
          "internalType": "bytes32[2]",
          "name": "h",
          "type": "bytes32[2]"
        },
        {
          "internalType": "bytes32[4]",
          "name": "m",
          "type": "bytes32[4]"
        },
        {
          "internalType": "bytes8[2]",
          "name": "t",
          "type": "bytes8[2]"
        },
        {
          "internalType": "bool",
          "name": "f",
          "type": "bool"
        }
      ],
      "name": "F",
      "outputs": [
        {
          "internalType": "bytes32[2]",
          "name": "",
          "type": "bytes32[2]"
        }
      ],
      "stateMutability": "view",
      "type": "function"
    },
    {
      "inputs": [],
      "name": "callF",
      "outputs": [
        {
          "internalType": "bytes32[2]",
          "name": "",
          "type": "bytes32[2]"
        }
      ],
      "stateMutability": "view",
      "type": "function"
    }
  ],
  "bytecode": "0x60806040527f7f83b1657ff1fc53b92dc18148a1d65dfc2d4b1fa3d677284addd200126d906960001b6000557f8476ee4631b9b30ac2754b0ee0c47e161d3f724c000000000000000000000000600160006101000a81548173ffffffffffffffffffffffffffffffffffffffff021916908360601c021790555034801561008557600080fd5b506119d3806100956000396000f3fe608060405234801561001057600080fd5b50600436106101165760003560e01c806372de3cbd116100a2578063a21d942f11610071578063a21d942f146102c3578063e3fcd538146102e1578063e60c0183146102ff578063efaddba21461031d578063fc75ac471461033b57610116565b806372de3cbd1461023b57806374213a111461026b5780639538667c14610289578063a1e976d9146102a757610116565b806340086158116100e957806340086158146101a55780634f033056146101c35780635210789d146101e15780635f96c255146101ff578063639dcab11461021d57610116565b806319483cd11461011b5780631b315814146101395780633148f14f146101575780633eef731114610187575b600080fd5b610123610359565b6040516101309190610f5a565b60405180910390f35b61014161036b565b60405161014e9190610f5a565b60405180910390f35b610171600480360381019061016c9190610fba565b61039a565b60405161017e919061101c565b60405180910390f35b61018f6103e9565b60405161019c91906110d0565b60405180910390f35b6101ad610477565b6040516101ba919061110b565b60405180910390f35b6101cb61050e565b6040516101d89190611161565b60405180910390f35b6101e9610521565b6040516101f69190611227565b60405180910390f35b61020761061c565b6040516102149190610f5a565b60405180910390f35b61022561073b565b6040516102329190611161565b60405180910390f35b610255600480360381019061025091906115c6565b6107b9565b6040516102629190611227565b60405180910390f35b6102736108e5565b604051610280919061110b565b60405180910390f35b610291610963565b60405161029e919061110b565b60405180910390f35b6102c160048036038101906102bc9190610fba565b6109cb565b005b6102cb6109e1565b6040516102d8919061101c565b60405180910390f35b6102e96109e7565b6040516102f6919061110b565b60405180910390f35b6103076109ed565b6040516103149190611227565b60405180910390f35b610325610b29565b60405161033291906110d0565b60405180910390f35b610343610bcb565b6040516103509190611227565b60405180910390f35b60008054610365610477565b14905090565b6000600160009054906101000a900460601b6bffffffffffffffffffffffff1916610394610477565b14905090565b600060405160208152602080820152602060408201528460608201528360808201528260a082015260c05160208160c08460006005614e20f16103dc57600080fd5b8051925050509392505050565b600280546103f690611672565b80601f016020809104026020016040519081016040528092919081815260200182805461042290611672565b801561046f5780601f106104445761010080835404028352916020019161046f565b820191906000526020600020905b81548152906001019060200180831161045257829003601f168201915b505050505081565b6000806040518060400160405280600c81526020017f48656c6c6f20576f726c64210000000000000000000000000000000000000000815250905060006002826040516104c491906116e0565b602060405180830381855afa1580156104e1573d6000803e3d6000fd5b5050506040513d601f19601f82011682018060405250810190610504919061170c565b9050809250505090565b600160009054906101000a900460601b81565b610529610df2565b610531610e14565b7fa03ab19b866fc585b5cb1812a2f63ca861e7e7643ee5d43fd7106b623725fd6760001b8160006003811061056957610568611739565b5b6020020181815250507fa03ab19b866fc585b5cb1812a2f63ca861e7e7643ee5d43fd7106b623725fd6760001b816001600381106105aa576105a9611739565b5b6020020181815250507fa03ab19b866fc585b5cb1812a2f63ca861e7e7643ee5d43fd7106b623725fd6760001b816002600381106105eb576105ea611739565b5b6020020181815250506040826060836000600762030d40f1806000811461061157610616565b600080fd5b50505090565b6000807312cb274aad8251c875c0bf6872b67d9983e53fdd905060007fc51dac836bc7841a01c4b631fa620904fc8724d7f9f1d3c420f0e02adf229d5060001b90506000601b905060007f44287513919034a471a7dc2b2ed121f95984ae23b20f9637ba8dff471b6719ef60001b905060007f7d7dc30309a3baffbfd9342b97d0e804092c0aeb5821319aa732bc09146eafb460001b90508473ffffffffffffffffffffffffffffffffffffffff16600185858585604051600081526020016040526040516106ee9493929190611784565b6020604051602081039080840390855afa158015610710573d6000803e3d6000fd5b5050506020604051035173ffffffffffffffffffffffffffffffffffffffff16149550505050505090565b6000806040518060400160405280600c81526020017f48656c6c6f20576f726c642100000000000000000000000000000000000000008152509050600060038260405161078891906116e0565b602060405180830381855afa1580156107a5573d6000803e3d6000fd5b5050506040515160601b9050809250505090565b6107c1610df2565b6107c9610df2565b600087876000600281106107e0576107df611739565b5b6020020151886001600281106107f9576107f8611739565b5b60200201518860006004811061081257610811611739565b5b60200201518960016004811061082b5761082a611739565b5b60200201518a60026004811061084457610843611739565b5b60200201518b60036004811061085d5761085c611739565b5b60200201518b60006002811061087657610875611739565b5b60200201518c60016002811061088f5761088e611739565b5b60200201518c6040516020016108ae9a99989796959493929190611889565b604051602081830303815290604052905060408260d5602084016009614e20fa6108d757600080fd5b819250505095945050505050565b6000807fa03ab19b866fc585b5cb1812a2f63ca861e7e7643ee5d43fd7106b623725fd6760001b90506000602060ff169050600060c082610926919061196c565b1461093057600080fd5b60405160208183602086016000600862030d40f18060008114610956578251955061095b565b600080fd5b505050505090565b6000807fa03ab19b866fc585b5cb1812a2f63ca861e7e7643ee5d43fd7106b623725fd6760001b9050610994610e36565b60208183516020850161040062030d40fa6109ab57fe5b806000600181106109bf576109be611739565b5b60200201519250505090565b6109d683838361039a565b600381905550505050565b60035481565b60005481565b6109f5610df2565b6109fd610e58565b7fa03ab19b866fc585b5cb1812a2f63ca861e7e7643ee5d43fd7106b623725fd6760001b81600060048110610a3557610a34611739565b5b6020020181815250507fa03ab19b866fc585b5cb1812a2f63ca861e7e7643ee5d43fd7106b623725fd6760001b81600160048110610a7657610a75611739565b5b6020020181815250507fa03ab19b866fc585b5cb1812a2f63ca861e7e7643ee5d43fd7106b623725fd6760001b81600260048110610ab757610ab6611739565b5b6020020181815250507fa03ab19b866fc585b5cb1812a2f63ca861e7e7643ee5d43fd7106b623725fd6760001b81600360048110610af857610af7611739565b5b6020020181815250506040826080836000600662030d40f18060008114610b1e57610b23565b600080fd5b50505090565b606060006752c46087061b671160c01b90506000600860ff1667ffffffffffffffff811115610b5b57610b5a611283565b5b6040519080825280601f01601f191660200182016040528015610b8d5781602001600182028036833780820191505090505b5090508151806020830182602086016000600462030d40f1610bab57fe5b508060029080519060200190610bc2929190610e7a565b50809250505090565b610bd3610df2565b6000600c9050610be1610df2565b7f48c9bdf267e6096a3ba7ca8485ae67bb2bf894fe72f36e3cf1361d5f3af54fa581600060028110610c1657610c15611739565b5b6020020181815250507fd182e6ad7f520e511f6c3e2b8c68059b6bbd41fbabd9831f79217e1319cde05b81600160028110610c5457610c53611739565b5b602002018181525050610c65610e58565b7f616263000000000000000000000000000000000000000000000000000000000081600060048110610c9a57610c99611739565b5b602002018181525050600081600160048110610cb957610cb8611739565b5b602002018181525050600081600260048110610cd857610cd7611739565b5b602002018181525050600081600360048110610cf757610cf6611739565b5b602002018181525050610d08610f00565b7f030000000000000000000000000000000000000000000000000000000000000081600060028110610d3d57610d3c611739565b5b602002019077ffffffffffffffffffffffffffffffffffffffffffffffff1916908177ffffffffffffffffffffffffffffffffffffffffffffffff191681525050600081600160028110610d9457610d93611739565b5b602002019077ffffffffffffffffffffffffffffffffffffffffffffffff1916908177ffffffffffffffffffffffffffffffffffffffffffffffff191681525050600060019050610de885858585856107b9565b9550505050505090565b6040518060400160405280600290602082028036833780820191505090505090565b6040518060600160405280600390602082028036833780820191505090505090565b6040518060200160405280600190602082028036833780820191505090505090565b6040518060800160405280600490602082028036833780820191505090505090565b828054610e8690611672565b90600052602060002090601f016020900481019282610ea85760008555610eef565b82601f10610ec157805160ff1916838001178555610eef565b82800160010185558215610eef579182015b82811115610eee578251825591602001919060010190610ed3565b5b509050610efc9190610f22565b5090565b6040518060400160405280600290602082028036833780820191505090505090565b5b80821115610f3b576000816000905550600101610f23565b5090565b60008115159050919050565b610f5481610f3f565b82525050565b6000602082019050610f6f6000830184610f4b565b92915050565b6000604051905090565b600080fd5b6000819050919050565b610f9781610f84565b8114610fa257600080fd5b50565b600081359050610fb481610f8e565b92915050565b600080600060608486031215610fd357610fd2610f7f565b5b6000610fe186828701610fa5565b9350506020610ff286828701610fa5565b925050604061100386828701610fa5565b9150509250925092565b61101681610f84565b82525050565b6000602082019050611031600083018461100d565b92915050565b600081519050919050565b600082825260208201905092915050565b60005b83811015611071578082015181840152602081019050611056565b83811115611080576000848401525b50505050565b6000601f19601f8301169050919050565b60006110a282611037565b6110ac8185611042565b93506110bc818560208601611053565b6110c581611086565b840191505092915050565b600060208201905081810360008301526110ea8184611097565b905092915050565b6000819050919050565b611105816110f2565b82525050565b600060208201905061112060008301846110fc565b92915050565b60007fffffffffffffffffffffffffffffffffffffffff00000000000000000000000082169050919050565b61115b81611126565b82525050565b60006020820190506111766000830184611152565b92915050565b600060029050919050565b600081905092915050565b6000819050919050565b6111a5816110f2565b82525050565b60006111b7838361119c565b60208301905092915050565b6000602082019050919050565b6111d98161117c565b6111e38184611187565b92506111ee82611192565b8060005b8381101561121f57815161120687826111ab565b9650611211836111c3565b9250506001810190506111f2565b505050505050565b600060408201905061123c60008301846111d0565b92915050565b600063ffffffff82169050919050565b61125b81611242565b811461126657600080fd5b50565b60008135905061127881611252565b92915050565b600080fd5b7f4e487b7100000000000000000000000000000000000000000000000000000000600052604160045260246000fd5b6112bb82611086565b810181811067ffffffffffffffff821117156112da576112d9611283565b5b80604052505050565b60006112ed610f75565b90506112f982826112b2565b919050565b600067ffffffffffffffff82111561131957611318611283565b5b602082029050919050565b600080fd5b611332816110f2565b811461133d57600080fd5b50565b60008135905061134f81611329565b92915050565b6000611368611363846112fe565b6112e3565b9050806020840283018581111561138257611381611324565b5b835b818110156113ab57806113978882611340565b845260208401935050602081019050611384565b5050509392505050565b600082601f8301126113ca576113c961127e565b5b60026113d7848285611355565b91505092915050565b600067ffffffffffffffff8211156113fb576113fa611283565b5b602082029050919050565b6000611419611414846113e0565b6112e3565b9050806020840283018581111561143357611432611324565b5b835b8181101561145c57806114488882611340565b845260208401935050602081019050611435565b5050509392505050565b600082601f83011261147b5761147a61127e565b5b6004611488848285611406565b91505092915050565b600067ffffffffffffffff8211156114ac576114ab611283565b5b602082029050919050565b60007fffffffffffffffff00000000000000000000000000000000000000000000000082169050919050565b6114ec816114b7565b81146114f757600080fd5b50565b600081359050611509816114e3565b92915050565b600061152261151d84611491565b6112e3565b9050806020840283018581111561153c5761153b611324565b5b835b81811015611565578061155188826114fa565b84526020840193505060208101905061153e565b5050509392505050565b600082601f8301126115845761158361127e565b5b600261159184828561150f565b91505092915050565b6115a381610f3f565b81146115ae57600080fd5b50565b6000813590506115c08161159a565b92915050565b600080600080600061014086880312156115e3576115e2610f7f565b5b60006115f188828901611269565b9550506020611602888289016113b5565b945050606061161388828901611466565b93505060e06116248882890161156f565b925050610120611636888289016115b1565b9150509295509295909350565b7f4e487b7100000000000000000000000000000000000000000000000000000000600052602260045260246000fd5b6000600282049050600182168061168a57607f821691505b6020821081141561169e5761169d611643565b5b50919050565b600081905092915050565b60006116ba82611037565b6116c481856116a4565b93506116d4818560208601611053565b80840191505092915050565b60006116ec82846116af565b915081905092915050565b60008151905061170681611329565b92915050565b60006020828403121561172257611721610f7f565b5b6000611730848285016116f7565b91505092915050565b7f4e487b7100000000000000000000000000000000000000000000000000000000600052603260045260246000fd5b600060ff82169050919050565b61177e81611768565b82525050565b600060808201905061179960008301876110fc565b6117a66020830186611775565b6117b360408301856110fc565b6117c060608301846110fc565b95945050505050565b60008160e01b9050919050565b60006117e1826117c9565b9050919050565b6117f96117f482611242565b6117d6565b82525050565b6000819050919050565b61181a611815826110f2565b6117ff565b82525050565b6000819050919050565b61183b611836826114b7565b611820565b82525050565b60008160f81b9050919050565b600061185982611841565b9050919050565b600061186b8261184e565b9050919050565b61188361187e82610f3f565b611860565b82525050565b6000611895828d6117e8565b6004820191506118a5828c611809565b6020820191506118b5828b611809565b6020820191506118c5828a611809565b6020820191506118d58289611809565b6020820191506118e58288611809565b6020820191506118f58287611809565b602082019150611905828661182a565b600882019150611915828561182a565b6008820191506119258284611872565b6001820191508190509b9a5050505050505050505050565b7f4e487b7100000000000000000000000000000000000000000000000000000000600052601260045260246000fd5b600061197782610f84565b915061198283610f84565b9250826119925761199161193d565b5b82820690509291505056fea2646970667358221220e24cbb0527c12d0cf0a39e62383bdd1fb15e3b8513e88866e745b0280ce7473064736f6c634300080b0033",
  "immutableReferences": {},
  "source": "// SPDX-License-Identifier: MIT\n\npragma solidity >=0.7.0 <=0.8.11;\n\ncontract Precall {\n\n    bytes32 public expectedHash = 0x7f83b1657ff1fc53b92dc18148a1d65dfc2d4b1fa3d677284addd200126d9069;\n    bytes20 public expectedHash2 = hex'8476ee4631b9b30ac2754b0ee0c47e161d3f724c';\n\n    function ecrecovertest() public pure returns(bool) {\n        address addressTest = 0x12Cb274aAD8251C875c0bf6872b67d9983E53fDd;\n        bytes32 msgHash = 0xc51dac836bc7841a01c4b631fa620904fc8724d7f9f1d3c420f0e02adf229d50;\n        uint8 v = 0x1b;\n        bytes32 r = 0x44287513919034a471a7dc2b2ed121f95984ae23b20f9637ba8dff471b6719ef;\n        bytes32 s = 0x7d7dc30309a3baffbfd9342b97d0e804092c0aeb5821319aa732bc09146eafb4;\n        // Use ECRECOVER to verify address\n        return (ecrecover(msgHash, v, r, s) == (addressTest));\n    }\n\n    function calculateHash() public pure returns (bytes32) {\n        string memory word = 'Hello World!';\n        bytes32 hash = sha256(bytes (word));\n\n        return hash;        \n    }\n\n    function checkHash() public view returns(bool) {\n        return (calculateHash() == expectedHash);\n    }\n\n    function sha3fips() public view returns (bytes32) {\n        bytes32 data = 0xa03ab19b866fc585b5cb1812a2f63ca861e7e7643ee5d43fd7106b623725fd67;\n        bytes32[1] memory h;\n        assembly {\n            if iszero(\n                staticcall(200000, 0x400, add(data, 32), mload(data), h, 32)\n            ) {\n                invalid()\n            }\n        }\n        return h[0];\n    }\n\n    function calculateHash160() public pure returns (bytes20) {\n        string memory word = 'Hello World!';\n        bytes20 hash = ripemd160(bytes (word));\n\n        return hash;        \n    }\n\n    function checkHash160() public view returns(bool) {\n        return (calculateHash() == expectedHash2);\n    }\n\n    function callBn256Add() public returns (bytes32[2] memory result) {\n        bytes32[4] memory input;\n        input[0] = 0xa03ab19b866fc585b5cb1812a2f63ca861e7e7643ee5d43fd7106b623725fd67;\n        input[1] = 0xa03ab19b866fc585b5cb1812a2f63ca861e7e7643ee5d43fd7106b623725fd67;\n        input[2] = 0xa03ab19b866fc585b5cb1812a2f63ca861e7e7643ee5d43fd7106b623725fd67;\n        input[3] = 0xa03ab19b866fc585b5cb1812a2f63ca861e7e7643ee5d43fd7106b623725fd67;\n        assembly {\n            let success := call(200000, 0x06, 0, input, 0x80, result, 0x40)\n            switch success\n            case 0 {\n                revert(0,0)\n            }\n        }\n    }\n\n    function callBn256ScalarMul() public returns (bytes32[2] memory result) {\n        bytes32[3] memory input;\n        input[0] = 0xa03ab19b866fc585b5cb1812a2f63ca861e7e7643ee5d43fd7106b623725fd67;\n        input[1] = 0xa03ab19b866fc585b5cb1812a2f63ca861e7e7643ee5d43fd7106b623725fd67;\n        input[2] = 0xa03ab19b866fc585b5cb1812a2f63ca861e7e7643ee5d43fd7106b623725fd67;\n        assembly {\n            let success := call(200000, 0x07, 0, input, 0x60, result, 0x40)\n            switch success\n            case 0 {\n                revert(0,0)\n            }\n        }\n    }\n\n    function callBn256Pairing() public returns (bytes32 result) {\n        // input is a serialized bytes stream of (a1, b1, a2, b2, ..., ak, bk) from (G_1 x G_2)^k\n        bytes32 input = 0xa03ab19b866fc585b5cb1812a2f63ca861e7e7643ee5d43fd7106b623725fd67;\n        uint256 len = input.length;\n        require(len % 192 == 0);\n        assembly {\n            let memPtr := mload(0x40)\n            let success := call(200000, 0x08, 0, add(input, 0x20), len, memPtr, 0x20)\n            switch success\n            case 0 {\n                revert(0,0)\n            } default {\n                result := mload(memPtr)\n            }\n        }\n    }\n\n    bytes public memoryStored;\n\n    function callDatacopy() public returns (bytes memory) {\n    bytes8 data = 0x52c46087061b6711;\n    bytes memory result = new bytes(data.length);\n    assembly {\n        let len := mload(data)\n        if iszero(call(200000, 0x04, 0, add(data, 0x20), len, add(result,0x20), len)) {\n            invalid()\n        }\n    }\n\n    memoryStored = result;\n\n    return result;\n    }\n\n    uint public checkResult;\n\n    // Function to Verify ModExp Result\n    function modVerify( uint _base, uint _exp, uint _modulus) public {\n        checkResult = modExp(_base, _exp, _modulus);\n    }\n\n    function modExp(uint256 _b, uint256 _e, uint256 _m) public returns (uint256 result) {\n        assembly {\n            // Free memory pointer\n            let pointer := mload(0x40)\n            // Define length of base, exponent and modulus. 0x20 == 32 bytes\n            mstore(pointer, 0x20)\n            mstore(add(pointer, 0x20), 0x20)\n            mstore(add(pointer, 0x40), 0x20)\n            // Define variables base, exponent and modulus\n            mstore(add(pointer, 0x60), _b)\n            mstore(add(pointer, 0x80), _e)\n            mstore(add(pointer, 0xa0), _m)\n            // Store the result\n            let value := mload(0xc0)\n            // Call the precompiled contract 0x05 = bigModExp\n            if iszero(call(20000, 0x05, 0, pointer, 0xc0, value, 0x20)) {\n                revert(0, 0)\n            }\n            result := mload(value)\n        }\n    }\n\n    function F(uint32 rounds, bytes32[2] memory h, bytes32[4] memory m, bytes8[2] memory t, bool f) public view returns (bytes32[2] memory) {\n        bytes32[2] memory output;\n\n        bytes memory args = abi.encodePacked(rounds, h[0], h[1], m[0], m[1], m[2], m[3], t[0], t[1], f);\n\n        assembly {\n            if iszero(staticcall(20000, 0x09, add(args, 32), 0xd5, output, 0x40)) {\n            revert(0, 0)\n            }\n        }\n\n        return output;\n    }\n\n    function callF() public view returns (bytes32[2] memory) {\n        uint32 rounds = 12;\n\n        bytes32[2] memory h;\n        h[0] = hex\"48c9bdf267e6096a3ba7ca8485ae67bb2bf894fe72f36e3cf1361d5f3af54fa5\";\n        h[1] = hex\"d182e6ad7f520e511f6c3e2b8c68059b6bbd41fbabd9831f79217e1319cde05b\";\n\n        bytes32[4] memory m;\n        m[0] = hex\"6162630000000000000000000000000000000000000000000000000000000000\";\n        m[1] = hex\"0000000000000000000000000000000000000000000000000000000000000000\";\n        m[2] = hex\"0000000000000000000000000000000000000000000000000000000000000000\";\n        m[3] = hex\"0000000000000000000000000000000000000000000000000000000000000000\";\n\n        bytes8[2] memory t;\n        t[0] = hex\"03000000\";\n        t[1] = hex\"00000000\";\n\n        bool f = true;\n\n        // Expected output:\n        // ba80a53f981c4d0d6a2797b69f12f6e94c212f14685ac4b74b12bb6fdbffa2d1\n        // 7d87c5392aab792dc252d5de4533cc9518d38aa8dbf1925ab92386edd4009923\n        return F(rounds, h, m, t, f);\n    }\n\n}",
  "sourcePath": "/home/fisco/Ethcontract/precontracttest/contracts/Precall.sol",
  "compiler": {
    "name": "solc",
    "version": "0.8.11+commit.d7f03943.Emscripten.clang"
  },
  "schemaVersion": "3.4.4",
  "updatedAt": "2022-01-28T04:42:16.812Z",
  "devdoc": {
    "kind": "dev",
    "methods": {},
    "version": 1
  },
  "userdoc": {
    "kind": "user",
    "methods": {},
    "version": 1
  }
}